:100000000C94EE000C940F010C940F010C940F0152
:100010000C940F010C940F010C940F010C940F0120
:100020000C940F010C940F010C940F010C940F0110
:100030000C940F010C940F010C940F010C940F0100
:100040000C940F010C940F010C940F010C940F01F0
:100050000C940F010C940F010C940F010C940F01E0
:100060000C940F010C940F010C940F010C940F01D0
:100070000C940F010C940F010C940F010C940F01C0
:100080000C940F010C940F010C940F010C940F01B0
:100090000C940F010C940F010C940F010C940F01A0
:1000A0000C940F010C940F010C940F010C940F0190
:1000B0000C940F010C940F010C940F010C940F0180
:1000C0000C940F010C940F010C940F010C940F0170
:1000D0000C940F010C940F010C940F010C940F0160
:1000E0000C940F010C940F010C940F010C940F0150
:1000F0000C940F010C940F010C940F010C940F0140
:100100000C940F010C940F010C940F010C940F012F
:100110000C940F010C940F010C940F010C940F011F
:100120000C940F010C940F010C940F010C940F010F
:100130000C940F010C940F010C940F010C940F01FF
:100140000C940F010C940F010C940F010C940F01EF
:100150000C940F010C940F010C940F010C940F01DF
:100160000C940F010C940F010C940F010C940F01CF
:100170000C940F010C940F010C940F010C940F01BF
:100180000C940F010C940F010C940F010C940F01AF
:100190000C940F010C940F010C940F010C940F019F
:1001A0000C940F010C940F010C940F010C940F018F
:1001B0000C940F010C940F010C940F010C940F017F
:1001C0000C940F010C940F010C94F8050C94110180
:1001D0000C94E4050C94F5040C94180511241FBE2E
:1001E000CFEFCDBFDFE3DEBF00E00CBF11E2A0E048
:1001F000B0E2E6E6F4E100E00BBF02C007900D922A
:10020000AA3AB107D9F722E2AAEAB1E201C01D92E7
:10021000A032B207E1F70E94E4070C94310A0C9473
:100220000000AAEAB1E2FC019E2F981B961710F07D
:1002300080E0089591919D93F7CF8627A82FB0E095
:10024000A65FBF4DE62FF0E0E65FFF4D9C918081F9
:1002500089270895CF93DF93FC01EB01188219825F
:100260001A821B82808190E0B0E0A0E0B82FAA271C
:100270009927882788839983AA83BB832181A22B0E
:1002800088839983AA83BB832281922B8883998355
:10029000AA83BB832381822B88839983AA83BB8310
:1002A000DF91CF910895DC01FB0113968C91139798
:1002B000808312968C911297818311968C9111975D
:1002C00082838C9183830895CF92DF92EF92FF9285
:1002D0000F931F93FC01262F862F90E040815181C0
:1002E000628173816A017B0104C0CC0CDD1CEE1CB1
:1002F000FF1C2A95D2F79701860191958195910966
:100300008F71992704C076956795579547958A957B
:10031000D2F74C29512B6E29732B40835183628372
:1003200073831F910F91FF90EF90DF90CF9008950E
:100330008F929F92AF92BF92CF92DF92EF92FF92F5
:100340000F931F93CF93DF9300D00F92CDB7DEB7FB
:100350008C0119821A821B821C82BE016F5F7F4F43
:100360000E945301E981F0E0E65FFF4D80818983BF
:10037000EA81F0E0E65FFF4D80818A83EB81F0E067
:10038000E65FFF4D80818B83EC81F0E0E65FFF4DFF
:1003900080818C83B801CE0101960E942A01F80168
:1003A0004081518162817381DB01CA0129E0B695E8
:1003B000A795979587952A95D1F76A017B0137E133
:1003C000CC0CDD1CEE1CFF1C3A95D1F78C299D2925
:1003D000AE29BF296A017B011DE0CC0CDD1CEE1C9F
:1003E000FF1C1A95D1F74A015B0103E1B694A7946B
:1003F000979487940A95D1F7C828D928EA28FB282A
:100400008C259D25AE25BF2584279527A627B727B0
:1004100080839183A283B3832496CDBFDEBFDF9117
:10042000CF911F910F91FF90EF90DF90CF90BF90F1
:10043000AF909F908F9008956F927F928F929F922E
:10044000AF92BF92CF92DF92EF92FF920F931F93E2
:10045000CF93DF9300D00F92CDB7DEB78C01198216
:100460001A821B821C82BE016F5F7F4F0E94530164
:10047000F801808191810E94B3090E94AF093C017B
:100480000E94AF094C010E94AF095C010E94AF09B4
:100490006C01E12CFF24F394C301B7010E94FE0715
:1004A000682F89810E941D018983C401B7010E94C0
:1004B000FE07682F8A810E941D018A83C501B7014A
:1004C0000E94FE07682F8B810E941D018B83C6014D
:1004D000B7010E94FE07682F8C810E941D018C834A
:1004E000B801CE0101960E942A01F8014081518194
:1004F00062817381DB01CA012AE0880F991FAA1F5C
:10050000BB1F2A95D1F76A017B0136E1F694E79487
:10051000D794C7943A95D1F78C299D29AE29BF2944
:100520006A017B01E2E0CC0CDD1CEE1CFF1CEA95AD
:10053000D1F74A015B01FEE1B694A79497948794A2
:10054000FA95D1F7C828D928EA28FB288C259D25BB
:10055000AE25BF2584279527A627B7276A017B01EB
:100560002EE0F694E794D794C7942A95D1F74A01E0
:100570005B0132E1880C991CAA1CBB1C3A95D1F78F
:10058000C828D928EA28FB288C259D25AE25BF251B
:10059000F62F672F742F85279F27A627B727F801E7
:1005A00080839183A283B3832496CDBFDEBFDF9186
:1005B000CF911F910F91FF90EF90DF90CF90BF9060
:1005C000AF909F908F907F906F9008952F923F9261
:1005D0004F925F926F927F928F929F92AF92BF9253
:1005E000CF92DF92EF92FF920F931F93CF93DF93FF
:1005F000CDB7DEB7C354D140CDBFDEBFF82E6B01FF
:10060000942EE52E82E390E00E9426085C018E0184
:100610000F5D1E4F80E1D8011D928A95E9F7E1E94F
:10062000F0E0EC0FFD1F709680E8DF011D928A95C7
:10063000E9F780E9E05AF109DF011D928A95E9F7AF
:10064000B801C6010E942A01B8016C5F7F4FC60144
:1006500004960E942A01B801685F7F4FC601089680
:100660000E942A01B801645F7F4FC6010C960E9468
:100670002A01F80180819181A281B381F6EC8F2754
:10068000FAEB9F27F1EBAF27F3EABF27CF56DF4FF7
:1006900088839983AA83BB83C159D040F8018481A0
:1006A0009581A681B781F0E58F27F3E39F27FAEACA
:1006B000AF27F6E5BF27CB56DF4F88839983AA8300
:1006C000BB83C559D040F80180859185A285B3854B
:1006D000F7E98F27F1E99F27FDE7AF27F7E6BF2767
:1006E000C756DF4F88839983AA83BB83C959D040FB
:1006F000F80184859585A685B785FCED8F27F2E204
:100700009F27F0E7AF27F2EBBF27C356DF4F888361
:100710009983AA83BB83CD59D0400F2D10E0A80147
:10072000692D7E2DC5010E94BE092F2D2F70D22E5E
:1007300040E150E0421B510970E060E0C501800FCC
:10074000911F0E94C709F2948FE0F8224F2C512C80
:1007500021E030E0D11002C030E020E01201220E92
:10076000331EC05CDE4F28823982C054D140092D2F
:100770001E2D4501712C612CC05CDE4F2880398014
:10078000C054D14026143704C9F4C501CD5BDE4FF7
:10079000CDBFDEBFDF91CF911F910F91FF90EF9002
:1007A000DF90CF90BF90AF909F908F907F906F9091
:1007B0005F904F903F902F900C94BC08BE016F5FEC
:1007C0007F4FC4010E942A01BE016B5F7F4FC401AD
:1007D00004960E942A01BE01675F7F4FC4010896FC
:1007E0000E942A01BE01635F7F4FC4010C960E94E4
:1007F0002A016E0121E9C20ED11C8AE091E2C25C9D
:10080000DE4F88839983CE53D140DE0111967D015E
:10081000C35CDE4F1882CD53D140CE5BDE4FC88221
:10082000D982C254D140C25CDE4FE881F981CE53F7
:10083000D1404191519161917191C25CDE4FE88349
:10084000F983CE53D140D60114962D903D904D9012
:100850005C90179718968D919D910D90BC91A02D4D
:1008600082259325A425B525F60124843584468464
:10087000578482259325A425B52584279527A62767
:10088000B727CB5CDE4F88839983AA83BB83C5538C
:10089000D140CE018B5C9E4F0E949801F4E0CF0EB8
:1008A000D11CCE5BDE4FA881B981C254D1404D919D
:1008B0005D916D917C91CB5CDE4F88819981AA819D
:1008C000BB81C553D140482759276A277B27F601AA
:1008D0004487558766877787CE5BDE4FE882F9824B
:1008E000C254D140D70114962D903D904D905C900C
:1008F000179718968D919D910D90BC91A02D8225F2
:100900009325A425B525F70124843584468457848E
:1009100082259325A425B52584279527A627B727C3
:10092000CF5CDE4F88839983AA83BB83C153D140B8
:10093000C35CDE4F6881CD53D140CE018F5C9E4FAA
:100940000E941C02F4E0EF0EF11CCE5BDE4FE8814A
:10095000F981C254D14080819181A281B381CF5C61
:10096000DE4F488159816A817B81C153D140842700
:100970009527A627B727F70184879587A687B78786
:10098000C35CDE4FF881CD53D140FF5FC35CDE4FC7
:10099000F883CD53D140F03209F03FCFB801CE01FA
:1009A00083579F4F0E945301B8016C5F7F4FCE0168
:1009B00087579F4F0E945301B801685F7F4FCE0158
:1009C0008B579F4F0E945301B801645F7F4FCE0148
:1009D0008F579F4F0E9453012FEF621A720A005FD8
:1009E0001F4F80E1880E911CC7CEFF920F931F937B
:1009F000CF93DF93D82FC92F862F00E016E0FF2476
:100A0000F394F801F5824D2F592F6AEA71E20E94A2
:100A1000E602F801F6824D2F5C2F60E182E70E942A
:100A2000B50580E0DF91CF911F910F91FF90089560
:100A300081E00895282F80E04DE4615008F4089586
:100A4000E22FF92F9191892728E030E087FF08C035
:100A5000880F842721503109C9F72E2F9F2FEDCF02
:100A6000880FF8CF9C01FA01DB0150E040E042170B
:100A700053071CF090E080E008958C9111969C91B2
:100A8000119760ED690F6A3078F4608390ED980FEC
:100A90009A30D0F48295807F9081892B80834F5F3C
:100AA0005F4F31961296E3CF6FEB690F663018F403
:100AB00097539083EBCF6FE9690F663018F081E0B0
:100AC00090E008959755F5CF9FEB980F963040F43E
:100AD0008753990B64E0880F991F6A95E1F7DCCF83
:100AE0009FE9980F963058F78755990BF3CFDB01A4
:100AF00060911A2270911B2260317105DCF4AF3FC6
:100B0000B10509F0B8F496E0969FF001979FF00DBB
:100B10001124E654FE4D8083A183B2834383548322
:100B200025836F5F7F4F60931A2270931B2290E0A2
:100B300080E0089581E090E0089520E00C9477052E
:100B400048E155E070E060E086E70E949D0548EFCF
:100B500055E070E060E087E70E949D0544EE55E0B7
:100B600070E060E089E70C949D05FF920F931F935E
:100B7000CF93DF93162FF42E052F0E943907CF2D28
:100B8000D02FCE01810F911D8C01C017D10741F4E8
:100B90008AE0DF91CF911F910F91FF900C9439075C
:100BA000E991E295EF70F0E0E656FE4D80810E94FB
:100BB0003907FE013197E081EF70F0E0E656FE4D17
:100BC00080810E943907E1CFCF93DF930F92CDB799
:100BD000DEB780911A228983AE014F5F5F4F61E0DB
:100BE00082E70E94B50580E00F90DF91CF910895D4
:100BF000CF93DF93CDB7DEB7E097CDBFDEBF2091B7
:100C00001A2230911B22B901772740E056E0842F49
:100C100090E08617970784F0622F660F620FAE018F
:100C20004F5F5F4F82E70E94B50580E0E096CDBF41
:100C3000DEBFDF91CF910895FC01EE0FFF1FE80F9B
:100C4000F91FA1E0B0E0AC0FBD1FEA0FFB1F589FDA
:100C5000D001599FB00D1124A654BE4D8C918083B4
:100C600011968C911197818315968C9182834F5F99
:100C7000CECFAF92BF92CF92DF92EF92FF920F93BF
:100C80001F93CF93DF93CDB7DEB7C150D340CDBF15
:100C9000DEBF0E94320740911A2250911B222AEB9C
:100CA00031E210E000E0041715070CF48EC0401785
:100CB000510709F47BC026E0209FC001219F900DC1
:100CC00011249C0126543E4D7901D90115968C9131
:100CD00080FF21C0CF5FDD4F1882C150D2400E94FB
:100CE000320789830E9432078A83AE014F5F5D4FCE
:100CF000BE016F5F7F4F81E090E00E943205892B3B
:100D000009F054C0CF5FDD4F8881C150D24090E0E0
:100D1000F701818392839E012F5F3F4F5901F12C90
:100D2000E12C26E0209FC001219F900D1124DC01C1
:100D3000A554BE4D6D01D6018D919C91880F991FD0
:100D4000E816F90608F44CC00E9432078A3011F008
:100D50008D3061F526E0209FC001219F900D112468
:100D60008C0106541E4DF801F180AE014F5F5D4FBE
:100D7000BE016F5F7F4F8F2D92810E943205892BBC
:100D8000A9F4D8011396ED91FC916F2DCE018F5FE0
:100D90009D4F1995CF5FDC4F8883C150D340AE0182
:100DA0004F5F5C4F61E08AE70E94B505CF5FDC4F83
:100DB000CDBFDEBFDF91CF911F910F91FF90EF90DC
:100DC000DF90CF90BF90AF9008952A5F3F4FF90119
:100DD00036979081981709F46ECF0F5F1F4F63CF3E
:100DE0000E9432078A3011F38D3001F3F5018193AF
:100DF0005F01FFEFEF1AFF0A9ECFE0E4F6E088E024
:100E0000818384E08283E0EAF8E083E085838BE0FD
:100E1000868317828481806184838481886084834F
:100E20000895CF93DF930F920F92CDB7DEB7FC01F9
:100E300069837A8390E080E029813A812817390715
:100E400011F480E008C02091A10827FF09C080911B
:100E5000A008808381E00F900F90DF91CF910895DB
:100E60000196EACF8091A10887FFFCCF8091A0086E
:100E700008959091A10895FFFCCF8093A008089554
:100E8000FC0160837183428314861386168615865F
:100E90000895FC0162830895FC01958526859F5F76
:100EA000937081E0921301C080E008951F93CF9367
:100EB000DF93EC01162F0E944C07882379F09D8563
:100EC000FE01E90FF11D17839F5F93709D87E881F5
:100ED000F98193819C7F2A81922B9383DF91CF911B
:100EE0001F910895FC012385948581E0291301C099
:100EF00080E00895FC018485DF01A80FB11D1396E1
:100F00008C9194859F5F937094870895FC018385ED
:100F10008F5F83702485A081B1819C91821749F0F5
:100F20002385DF01A20FB11D13969C93838781E077
:100F3000089580E00895CF93DF93FC018685958521
:100F4000A081B181981309C013968C9113978C7F5F
:100F500013968C93DF91CF9108958685EF01C80F8A
:100F6000D11D8F818C9386858F5F83708687F2CFAA
:100F7000FC01CB01248170FF04C0216024838083A5
:100F800008952E7FFBCFFC01848180FF04C0808107
:100F900090E091600895808190E008951092520051
:100FA000109255008091500088608093500080918D
:100FB000510083FFFCCF88ED84BF83E08093400025
:100FC00088E08093500008950E94CE070E94FD069D
:100FD00081E0809301060E94A00541E151E060E1BB
:100FE00070E08BE60E949D0545EF54E060E170E003
:100FF00080E70E949D050E943906FDCF97FB072ED2
:1010000016F4009407D077FD09D00E94120807FC5F
:1010100005D03EF4909581959F4F08957095619508
:101020007F4F0895AA1BBB1B51E107C0AA1FBB1F1E
:10103000A617B70710F0A61BB70B881F991F5A9564
:10104000A9F780959095BC01CD0108950F931F934A
:10105000CF93DF939C01029710F422E030E0E091FF
:101060001C22F0911D2290E080E0B0E0A0E03097DB
:1010700091F4009709F445C0821B930B84309105CD
:10108000B8F58A819B816115710569F1FB01828345
:101090009383FE0111C04081518102811381421767
:1010A0005307F0F04217530799F4109761F0129626
:1010B0000C93129713961C933296CF01DF91CF9128
:1010C0001F910F91089500931C2210931D22F4CFBD
:1010D000009719F04817590718F4CA01BD01EF012C
:1010E000DF01F801C4CF80931C2290931D22D1CF41
:1010F000FE01E80FF91F21933193029788839983AA
:10110000DCCF80911E2290911F22892B41F4809187
:1011100002209091032080931E2290931F228091A1
:10112000002090910120009741F48DB79EB7409127
:10113000042050910520841B950B40911E22509154
:101140001F224817590708F0B8CF841B950B821748
:10115000930708F4B2CFB9016E5F7F4F86179707E8
:1011600008F4ABCF640F751F60931E2270931F228B
:10117000FA0121933193A1CFCF93DF939C01009784
:10118000E9F0FC01329712821382C0911C22D091A7
:101190001D22DE0190E080E02097A1F48081918102
:1011A000280F391F80911E2290911F2282179307CA
:1011B00009F067C0E0931E22F0931F22DF91CF91C8
:1011C0000895DA01AE17BF0708F041C012964D919D
:1011D0005C911397CD014115510599F7DC011296E9
:1011E000ED93FC9313974D915D91A40FB51FEA17F2
:1011F000FB0781F4208131812E5F3F4F240F351F83
:10120000DC012D933C9311972281338112962D930B
:101210003C931397B0E0A0E08A819B810097B1F5E1
:10122000FE0181919191E80FF91F80911E2290910A
:101230001F228E179F0711F6109759F510921C2246
:1012400010921D22C0931E22D0931F22B7CFA283DB
:10125000B38340815181240F351FA217B30771F466
:101260004E5F5F4F2D913C911197240F351F2083C6
:10127000318312962D913C9122833383009709F09C
:10128000ADCFE0931C22F0931D2298CFDE01EC013C
:10129000C3CF12961D921C921397D4CFCF92DF9298
:1012A000EF92FF92CF93DF93CDB7DEB72A97CDBFF2
:1012B000DEBF89879A87A985BA852D913D914D9189
:1012C0005C9129833A834B835C83232B242B252B2E
:1012D00041F424E239ED4BE557E029833A834B830F
:1012E0005C8369817A818B819C812DE133EF41E0C0
:1012F00050E00E94CE0969017A01A7EAB1E49B019E
:10130000AC010E94ED0969837A838B839C83ACEEE8
:10131000B4EFA70196010E94FB099B01AC018981F2
:101320009A81AB81BC81820F931FA41FB51FB7FFA9
:1013300003C00197A109B048E985FA8580839183AC
:10134000A283B3839F772A96CDBFDEBFDF91CF9173
:10135000FF90EF90DF90CF9008950C944E0986E0B7
:1013600090E20C944E09B0E0A0E0809306209093A8
:101370000720A0930820B09309200895FB01DC0109
:1013800002C001900D9241505040D8F70895DC0101
:1013900001C06D9341505040E0F70895052E97FB32
:1013A0001EF400940E94E50957FD07D00E94000A30
:1013B00007FC03D04EF40C94E50950954095309508
:1013C00021953F4F4F4F5F4F0895909580957095B1
:1013D00061957F4F8F4F9F4F08950E94220AA59FCE
:1013E000900DB49F900DA49F800D911D1124089520
:1013F000B7FF0C94ED090E94ED09821B930B089531
:10140000A1E21A2EAA1BBB1BFD010DC0AA1FBB1F08
:10141000EE1FFF1FA217B307E407F50720F0A21B7A
:10142000B30BE40BF50B661F771F881F991F1A94E7
:1014300069F760957095809590959B01AC01BD0111
:10144000CF010895A29FB001B39FC001A39F700D6B
:10145000811D1124911DB29F700D811D1124911DBC
:061460000895F894FFCF8F
:1014660000002022200001000000D690E9FECCE119
:101476003DB716B614C228FB2C052B679A762ABEF2
:1014860004C3AA441326498606999C4250F491EF58
:10149600987A33540B43EDCFAC62E4B31CA9C90868
:1014A600E89580DF94FA758F3FA64707A7FCF3738C
:1014B60017BA83593C19E6854FA8686B81B27164E7
:1014C600DA8BF8EB0F4B70569D351E240E5E635873
:1014D600D1A225227C3B01217887D40046579FD391
:1014E60027524C3602E7A0C4C89EEABF8AD240C73C
:1014F60038B5A3F7F2CEF96115A1E0AE5DA49B3431
:101506001A55AD933230F58CB1E31DF6E22E8266A4
:10151600CA60C02923AB0D534E6FD5DB3745DEFDC0
:101526008E2F03FF6A726D6C5B518D1BAF92BBDD14
:10153600BC7F11D95C411F105AD80AC13188A5CD8C
:101546007BBD2D74D012B8E5B4B08969974A0C9664
:10155600777E65B9F109C56EC68418F07DEC3ADC74
:101566004D2079EE5F3ED7CB3948150E0700312A5C
:10157600231C4D463F3869625B54857E7770A19A7D
:10158600938CBDB6AFA8D9D2CBC4F5EEE7E0110A6D
:1015960003FC2D261F1849423B34655E5750817A5D
:1015A600736C9D968F88B9B2ABA4D5CEC7C0F1EA4D
:1015B600E3DC0D06FFF829221B14453E3730615A3D
:1015C600534C7D766F6899928B84B5AEA7A0D1CA2D
:1015D600C3BCEDE6DFD80902FBF4251E1710413A1D
:1015E600332C5D564F4879726B64C6BAB1A350333B
:1015F600AA5697917D67DC2270B23031323334358A
:0A1606003637383941424344454667
:00000001FF
